



<!doctype html>
<html lang="en" class="no-js">
  <head>
    
      <meta charset="utf-8">
      <meta name="viewport" content="width=device-width,initial-scale=1">
      <meta http-equiv="x-ua-compatible" content="ie=edge">
      
      
      
        <meta name="author" content="Metaverse">
      
      
        <meta name="lang:clipboard.copy" content="Copy to clipboard">
      
        <meta name="lang:clipboard.copied" content="Copied to clipboard">
      
        <meta name="lang:search.language" content="en">
      
        <meta name="lang:search.pipeline.stopwords" content="True">
      
        <meta name="lang:search.pipeline.trimmer" content="True">
      
        <meta name="lang:search.result.none" content="No matching documents">
      
        <meta name="lang:search.result.one" content="1 matching document">
      
        <meta name="lang:search.result.other" content="# matching documents">
      
        <meta name="lang:search.tokenizer" content="[\s\-]+">
      
      <link rel="shortcut icon" href="../assets/favicon.png">
      <meta name="generator" content="mkdocs-1.0.4, mkdocs-material-4.6.3">
    
    
      
        <title>MST Multi Sig - The New Reality</title>
      
    
    
      <link rel="stylesheet" href="../assets/stylesheets/application.adb8469c.css">
      
      
    
    
      <script src="../assets/javascripts/modernizr.86422ebf.js"></script>
    
    
      
        <link href="https://fonts.gstatic.com" rel="preconnect" crossorigin>
        <link rel="stylesheet" href="https://fonts.googleapis.com/css?family=Roboto:300,400,400i,700%7CRoboto+Mono&display=fallback">
        <style>body,input{font-family:"Roboto","Helvetica Neue",Helvetica,Arial,sans-serif}code,kbd,pre{font-family:"Roboto Mono","Courier New",Courier,monospace}</style>
      
    
    <link rel="stylesheet" href="../assets/fonts/material-icons.css">
    
    
    
      
    
    
  </head>
  
    <body dir="ltr">
  
    <svg class="md-svg">
      <defs>
        
        
      </defs>
    </svg>
    <input class="md-toggle" data-md-toggle="drawer" type="checkbox" id="__drawer" autocomplete="off">
    <input class="md-toggle" data-md-toggle="search" type="checkbox" id="__search" autocomplete="off">
    <label class="md-overlay" data-md-component="overlay" for="__drawer"></label>
    
      <a href="#mst-multi-signature" tabindex="0" class="md-skip">
        Skip to content
      </a>
    
    
      <header class="md-header" data-md-component="header">
  <nav class="md-header-nav md-grid">
    <div class="md-flex">
      <div class="md-flex__cell md-flex__cell--shrink">
        <a href=".." title="The New Reality" aria-label="The New Reality" class="md-header-nav__button md-logo">
          
            <i class="md-icon"></i>
          
        </a>
      </div>
      <div class="md-flex__cell md-flex__cell--shrink">
        <label class="md-icon md-icon--menu md-header-nav__button" for="__drawer"></label>
      </div>
      <div class="md-flex__cell md-flex__cell--stretch">
        <div class="md-flex__ellipsis md-header-nav__title" data-md-component="title">
          
            <span class="md-header-nav__topic">
              The New Reality
            </span>
            <span class="md-header-nav__topic">
              
                MST Multi Sig
              
            </span>
          
        </div>
      </div>
      <div class="md-flex__cell md-flex__cell--shrink">
        
          <label class="md-icon md-icon--search md-header-nav__button" for="__search"></label>
          
<div class="md-search" data-md-component="search" role="dialog">
  <label class="md-search__overlay" for="__search"></label>
  <div class="md-search__inner" role="search">
    <form class="md-search__form" name="search">
      <input type="text" class="md-search__input" aria-label="search" name="query" placeholder="Search" autocapitalize="off" autocorrect="off" autocomplete="off" spellcheck="false" data-md-component="query" data-md-state="active">
      <label class="md-icon md-search__icon" for="__search"></label>
      <button type="reset" class="md-icon md-search__icon" data-md-component="reset" tabindex="-1">
        &#xE5CD;
      </button>
    </form>
    <div class="md-search__output">
      <div class="md-search__scrollwrap" data-md-scrollfix>
        <div class="md-search-result" data-md-component="result">
          <div class="md-search-result__meta">
            Type to start searching
          </div>
          <ol class="md-search-result__list"></ol>
        </div>
      </div>
    </div>
  </div>
</div>
        
      </div>
      
    </div>
  </nav>
</header>
    
    <div class="md-container">
      
        
      
      
      <main class="md-main" role="main">
        <div class="md-main__inner md-grid" data-md-component="container">
          
            
              <div class="md-sidebar md-sidebar--primary" data-md-component="navigation">
                <div class="md-sidebar__scrollwrap">
                  <div class="md-sidebar__inner">
                    <nav class="md-nav md-nav--primary" data-md-level="0">
  <label class="md-nav__title md-nav__title--site" for="__drawer">
    <a href=".." title="The New Reality" class="md-nav__button md-logo">
      
        <i class="md-icon"></i>
      
    </a>
    The New Reality
  </label>
  
  <ul class="md-nav__list" data-md-scrollfix>
    
      
      
      


  <li class="md-nav__item">
    <a href=".." title="Home" class="md-nav__link">
      Home
    </a>
  </li>

    
      
      
      


  <li class="md-nav__item">
    <a href="../metaverse/" title="What Is Metaverse" class="md-nav__link">
      What Is Metaverse
    </a>
  </li>

    
      
      
      


  <li class="md-nav__item">
    <a href="../mvswhitepaper/" title="Brief Metaverse White Paper" class="md-nav__link">
      Brief Metaverse White Paper
    </a>
  </li>

    
      
      
      


  <li class="md-nav__item">
    <a href="../avatarwhitepaper/" title="Brief Avatar White Paper" class="md-nav__link">
      Brief Avatar White Paper
    </a>
  </li>

    
      
      
      


  <li class="md-nav__item md-nav__item--nested">
    
      <input class="md-toggle md-nav__toggle" data-md-toggle="nav-5" type="checkbox" id="nav-5">
    
    <label class="md-nav__link" for="nav-5">
      Metaverse Wallet
    </label>
    <nav class="md-nav" data-md-component="collapsible" data-md-level="1">
      <label class="md-nav__title" for="nav-5">
        Metaverse Wallet
      </label>
      <ul class="md-nav__list" data-md-scrollfix>
        
        
          
          
          


  <li class="md-nav__item">
    <a href="../metaversewalletsetup/" title="Setup" class="md-nav__link">
      Setup
    </a>
  </li>

        
          
          
          


  <li class="md-nav__item md-nav__item--nested">
    
      <input class="md-toggle md-nav__toggle" data-md-toggle="nav-5-2" type="checkbox" id="nav-5-2">
    
    <label class="md-nav__link" for="nav-5-2">
      Features
    </label>
    <nav class="md-nav" data-md-component="collapsible" data-md-level="2">
      <label class="md-nav__title" for="nav-5-2">
        Features
      </label>
      <ul class="md-nav__list" data-md-scrollfix>
        
        
          
          
          


  <li class="md-nav__item">
    <a href="../createasset/" title="Create Asset" class="md-nav__link">
      Create Asset
    </a>
  </li>

        
          
          
          


  <li class="md-nav__item">
    <a href="../assettransfer/" title="Token Transfer" class="md-nav__link">
      Token Transfer
    </a>
  </li>

        
          
          
          


  <li class="md-nav__item">
    <a href="../pillarsfeatures/" title="Pillars Features" class="md-nav__link">
      Pillars Features
    </a>
  </li>

        
          
          
          


  <li class="md-nav__item md-nav__item--nested">
    
      <input class="md-toggle md-nav__toggle" data-md-toggle="nav-5-2-4" type="checkbox" id="nav-5-2-4">
    
    <label class="md-nav__link" for="nav-5-2-4">
      Supernova
    </label>
    <nav class="md-nav" data-md-component="collapsible" data-md-level="3">
      <label class="md-nav__title" for="nav-5-2-4">
        Supernova
      </label>
      <ul class="md-nav__list" data-md-scrollfix>
        
        
          
          
          


  <li class="md-nav__item">
    <a href="../supernovaavatar/" title="Avatar" class="md-nav__link">
      Avatar
    </a>
  </li>

        
          
          
          


  <li class="md-nav__item">
    <a href="../mst/" title="MST" class="md-nav__link">
      MST
    </a>
  </li>

        
          
          
          


  <li class="md-nav__item">
    <a href="../certificate/" title="Certificate" class="md-nav__link">
      Certificate
    </a>
  </li>

        
      </ul>
    </nav>
  </li>

        
      </ul>
    </nav>
  </li>

        
      </ul>
    </nav>
  </li>

    
      
      
      


  <li class="md-nav__item md-nav__item--nested">
    
      <input class="md-toggle md-nav__toggle" data-md-toggle="nav-6" type="checkbox" id="nav-6">
    
    <label class="md-nav__link" for="nav-6">
      Metaverse Full Node
    </label>
    <nav class="md-nav" data-md-component="collapsible" data-md-level="1">
      <label class="md-nav__title" for="nav-6">
        Metaverse Full Node
      </label>
      <ul class="md-nav__list" data-md-scrollfix>
        
        
          
          
          


  <li class="md-nav__item">
    <a href="../fullnodeintro/" title="Full Node Intro" class="md-nav__link">
      Full Node Intro
    </a>
  </li>

        
          
          
          


  <li class="md-nav__item">
    <a href="../linuxinstallation/" title="Linux Installation" class="md-nav__link">
      Linux Installation
    </a>
  </li>

        
          
          
          


  <li class="md-nav__item">
    <a href="../resetmvsenv/" title="Reset Metaverse Environment" class="md-nav__link">
      Reset Metaverse Environment
    </a>
  </li>

        
          
          
          


  <li class="md-nav__item">
    <a href="../upgrademvsenv/" title="Upgrade Metaverse Environment" class="md-nav__link">
      Upgrade Metaverse Environment
    </a>
  </li>

        
          
          
          


  <li class="md-nav__item">
    <a href="../backupmvs/" title="Backup Metaverse Account" class="md-nav__link">
      Backup Metaverse Account
    </a>
  </li>

        
      </ul>
    </nav>
  </li>

    
      
      
      


  <li class="md-nav__item md-nav__item--nested">
    
      <input class="md-toggle md-nav__toggle" data-md-toggle="nav-7" type="checkbox" id="nav-7">
    
    <label class="md-nav__link" for="nav-7">
      Metaverse Command Line
    </label>
    <nav class="md-nav" data-md-component="collapsible" data-md-level="1">
      <label class="md-nav__title" for="nav-7">
        Metaverse Command Line
      </label>
      <ul class="md-nav__list" data-md-scrollfix>
        
        
          
          
          


  <li class="md-nav__item">
    <a href="../mvs-cli-start/" title="Start Running MVS-CLI" class="md-nav__link">
      Start Running MVS-CLI
    </a>
  </li>

        
          
          
          


  <li class="md-nav__item">
    <a href="../mvsd-cli/" title="mvsd usage" class="md-nav__link">
      mvsd usage
    </a>
  </li>

        
          
          
          


  <li class="md-nav__item md-nav__item--nested">
    
      <input class="md-toggle md-nav__toggle" data-md-toggle="nav-7-3" type="checkbox" id="nav-7-3">
    
    <label class="md-nav__link" for="nav-7-3">
      Commands
    </label>
    <nav class="md-nav" data-md-component="collapsible" data-md-level="2">
      <label class="md-nav__title" for="nav-7-3">
        Commands
      </label>
      <ul class="md-nav__list" data-md-scrollfix>
        
        
          
          
          


  <li class="md-nav__item">
    <a href="../account-cli/" title="Account" class="md-nav__link">
      Account
    </a>
  </li>

        
          
          
          


  <li class="md-nav__item">
    <a href="../blockchain-cli/" title="Blockchain" class="md-nav__link">
      Blockchain
    </a>
  </li>

        
          
          
          


  <li class="md-nav__item">
    <a href="../etp-cli/" title="ETP" class="md-nav__link">
      ETP
    </a>
  </li>

        
          
          
          


  <li class="md-nav__item">
    <a href="../transaction-cli/" title="Transaction" class="md-nav__link">
      Transaction
    </a>
  </li>

        
          
          
          


  <li class="md-nav__item">
    <a href="../asset-cli/" title="Asset" class="md-nav__link">
      Asset
    </a>
  </li>

        
          
          
          


  <li class="md-nav__item">
    <a href="../multisig-cli/" title="Multi-Signature" class="md-nav__link">
      Multi-Signature
    </a>
  </li>

        
          
          
          


  <li class="md-nav__item">
    <a href="../raw-tx-cli/" title="Raw Tx (Offline-Sign)" class="md-nav__link">
      Raw Tx (Offline-Sign)
    </a>
  </li>

        
      </ul>
    </nav>
  </li>

        
          
          
          


  <li class="md-nav__item">
    <a href="../testnet/" title="Testnet" class="md-nav__link">
      Testnet
    </a>
  </li>

        
          
          
          


  <li class="md-nav__item">
    <a href="../privatechain/" title="Private Chain" class="md-nav__link">
      Private Chain
    </a>
  </li>

        
      </ul>
    </nav>
  </li>

    
      
      
      

  


  <li class="md-nav__item md-nav__item--active md-nav__item--nested">
    
      <input class="md-toggle md-nav__toggle" data-md-toggle="nav-8" type="checkbox" id="nav-8" checked>
    
    <label class="md-nav__link" for="nav-8">
      MST
    </label>
    <nav class="md-nav" data-md-component="collapsible" data-md-level="1">
      <label class="md-nav__title" for="nav-8">
        MST
      </label>
      <ul class="md-nav__list" data-md-scrollfix>
        
        
          
          
          


  <li class="md-nav__item">
    <a href="../mstintro/" title="Introduction" class="md-nav__link">
      Introduction
    </a>
  </li>

        
          
          
          


  <li class="md-nav__item">
    <a href="../mstissuance/" title="MST Issuance" class="md-nav__link">
      MST Issuance
    </a>
  </li>

        
          
          
          


  <li class="md-nav__item">
    <a href="../mstsecondaryissuance/" title="MST Seconary Issuance" class="md-nav__link">
      MST Seconary Issuance
    </a>
  </li>

        
          
          
          


  <li class="md-nav__item">
    <a href="../mstconditionaloffering/" title="MST Conditional Offering" class="md-nav__link">
      MST Conditional Offering
    </a>
  </li>

        
          
          
          

  


  <li class="md-nav__item md-nav__item--active">
    
    <input class="md-toggle md-nav__toggle" data-md-toggle="toc" type="checkbox" id="__toc">
    
      
    
    
      <label class="md-nav__link md-nav__link--active" for="__toc">
        MST Multi Sig
      </label>
    
    <a href="./" title="MST Multi Sig" class="md-nav__link md-nav__link--active">
      MST Multi Sig
    </a>
    
      
<nav class="md-nav md-nav--secondary">
  
  
    
  
  
    <label class="md-nav__title" for="__toc">Table of contents</label>
    <ul class="md-nav__list" data-md-scrollfix>
      
        <li class="md-nav__item">
  <a href="#introduction" class="md-nav__link">
    Introduction
  </a>
  
</li>
      
        <li class="md-nav__item">
  <a href="#use-multi-signature" class="md-nav__link">
    Use Multi-signature
  </a>
  
</li>
      
        <li class="md-nav__item">
  <a href="#commands-related-to-multi-signature" class="md-nav__link">
    Commands related to Multi-signature
  </a>
  
</li>
      
        <li class="md-nav__item">
  <a href="#get-and-inform-public-key" class="md-nav__link">
    Get and inform public-key
  </a>
  
</li>
      
        <li class="md-nav__item">
  <a href="#create-a-multi-signature-address" class="md-nav__link">
    Create a multi-signature address
  </a>
  
</li>
      
        <li class="md-nav__item">
  <a href="#send-etp-to-the-multi-signature-address" class="md-nav__link">
    Send ETP to the multi-signature address
  </a>
  
</li>
      
        <li class="md-nav__item">
  <a href="#create-a-multi-signature-transaction" class="md-nav__link">
    Create a multi-signature transaction
  </a>
  
</li>
      
        <li class="md-nav__item">
  <a href="#other-participators-signature" class="md-nav__link">
    Other participators signature
  </a>
  
</li>
      
        <li class="md-nav__item">
  <a href="#broadcast-the-multi-signature-transaction" class="md-nav__link">
    Broadcast the multi-signature transaction
  </a>
  
</li>
      
      
      
      
      
    </ul>
  
</nav>
    
  </li>

        
          
          
          


  <li class="md-nav__item md-nav__item--nested">
    
      <input class="md-toggle md-nav__toggle" data-md-toggle="nav-8-6" type="checkbox" id="nav-8-6">
    
    <label class="md-nav__link" for="nav-8-6">
      MST Certificate
    </label>
    <nav class="md-nav" data-md-component="collapsible" data-md-level="2">
      <label class="md-nav__title" for="nav-8-6">
        MST Certificate
      </label>
      <ul class="md-nav__list" data-md-scrollfix>
        
        
          
          
          


  <li class="md-nav__item">
    <a href="../mstcertificate/" title="Introduction" class="md-nav__link">
      Introduction
    </a>
  </li>

        
          
          
          


  <li class="md-nav__item">
    <a href="../obtaincertificate/" title="Obtain Certificate" class="md-nav__link">
      Obtain Certificate
    </a>
  </li>

        
          
          
          


  <li class="md-nav__item">
    <a href="../usercertificate/" title="Use Certificate" class="md-nav__link">
      Use Certificate
    </a>
  </li>

        
          
          
          


  <li class="md-nav__item">
    <a href="../querycertificates/" title="Query Certificate" class="md-nav__link">
      Query Certificate
    </a>
  </li>

        
      </ul>
    </nav>
  </li>

        
          
          
          


  <li class="md-nav__item">
    <a href="../mstburn/" title="MST Burn" class="md-nav__link">
      MST Burn
    </a>
  </li>

        
      </ul>
    </nav>
  </li>

    
      
      
      


  <li class="md-nav__item md-nav__item--nested">
    
      <input class="md-toggle md-nav__toggle" data-md-toggle="nav-9" type="checkbox" id="nav-9">
    
    <label class="md-nav__link" for="nav-9">
      MIT
    </label>
    <nav class="md-nav" data-md-component="collapsible" data-md-level="1">
      <label class="md-nav__title" for="nav-9">
        MIT
      </label>
      <ul class="md-nav__list" data-md-scrollfix>
        
        
          
          
          


  <li class="md-nav__item">
    <a href="../mitintro/" title="Introduction" class="md-nav__link">
      Introduction
    </a>
  </li>

        
          
          
          


  <li class="md-nav__item">
    <a href="../mitregister/" title="MIT Register" class="md-nav__link">
      MIT Register
    </a>
  </li>

        
          
          
          


  <li class="md-nav__item">
    <a href="../mittransfer/" title="MIT Transfer" class="md-nav__link">
      MIT Transfer
    </a>
  </li>

        
          
          
          


  <li class="md-nav__item">
    <a href="../mitquery/" title="Query MIT" class="md-nav__link">
      Query MIT
    </a>
  </li>

        
      </ul>
    </nav>
  </li>

    
      
      
      


  <li class="md-nav__item md-nav__item--nested">
    
      <input class="md-toggle md-nav__toggle" data-md-toggle="nav-10" type="checkbox" id="nav-10">
    
    <label class="md-nav__link" for="nav-10">
      Digital Identity (Avatar)
    </label>
    <nav class="md-nav" data-md-component="collapsible" data-md-level="1">
      <label class="md-nav__title" for="nav-10">
        Digital Identity (Avatar)
      </label>
      <ul class="md-nav__list" data-md-scrollfix>
        
        
          
          
          


  <li class="md-nav__item">
    <a href="../didintro/" title="DID Introduction" class="md-nav__link">
      DID Introduction
    </a>
  </li>

        
          
          
          


  <li class="md-nav__item">
    <a href="../didregister/" title="DID Register" class="md-nav__link">
      DID Register
    </a>
  </li>

        
          
          
          


  <li class="md-nav__item">
    <a href="../didtransfer/" title="DID Transfer" class="md-nav__link">
      DID Transfer
    </a>
  </li>

        
          
          
          


  <li class="md-nav__item">
    <a href="../didquery/" title="DID Query" class="md-nav__link">
      DID Query
    </a>
  </li>

        
          
          
          


  <li class="md-nav__item">
    <a href="../didsendetp/" title="DID Send ETP or Asset" class="md-nav__link">
      DID Send ETP or Asset
    </a>
  </li>

        
      </ul>
    </nav>
  </li>

    
  </ul>
</nav>
                  </div>
                </div>
              </div>
            
            
              <div class="md-sidebar md-sidebar--secondary" data-md-component="toc">
                <div class="md-sidebar__scrollwrap">
                  <div class="md-sidebar__inner">
                    
<nav class="md-nav md-nav--secondary">
  
  
    
  
  
    <label class="md-nav__title" for="__toc">Table of contents</label>
    <ul class="md-nav__list" data-md-scrollfix>
      
        <li class="md-nav__item">
  <a href="#introduction" class="md-nav__link">
    Introduction
  </a>
  
</li>
      
        <li class="md-nav__item">
  <a href="#use-multi-signature" class="md-nav__link">
    Use Multi-signature
  </a>
  
</li>
      
        <li class="md-nav__item">
  <a href="#commands-related-to-multi-signature" class="md-nav__link">
    Commands related to Multi-signature
  </a>
  
</li>
      
        <li class="md-nav__item">
  <a href="#get-and-inform-public-key" class="md-nav__link">
    Get and inform public-key
  </a>
  
</li>
      
        <li class="md-nav__item">
  <a href="#create-a-multi-signature-address" class="md-nav__link">
    Create a multi-signature address
  </a>
  
</li>
      
        <li class="md-nav__item">
  <a href="#send-etp-to-the-multi-signature-address" class="md-nav__link">
    Send ETP to the multi-signature address
  </a>
  
</li>
      
        <li class="md-nav__item">
  <a href="#create-a-multi-signature-transaction" class="md-nav__link">
    Create a multi-signature transaction
  </a>
  
</li>
      
        <li class="md-nav__item">
  <a href="#other-participators-signature" class="md-nav__link">
    Other participators signature
  </a>
  
</li>
      
        <li class="md-nav__item">
  <a href="#broadcast-the-multi-signature-transaction" class="md-nav__link">
    Broadcast the multi-signature transaction
  </a>
  
</li>
      
      
      
      
      
    </ul>
  
</nav>
                  </div>
                </div>
              </div>
            
          
          <div class="md-content">
            <article class="md-content__inner md-typeset">
              
                
                
                <h1 id="mst-multi-signature">MST Multi-signature</h1>
<h2 id="introduction">Introduction</h2>
<p>A multi-signature address is an address that is associated with more than one ECDSA private key. The simplest type is an m-of-n address - it is associated with n private keys, and sending possession from this address requires signatures from at least m keys. A multi-signature transaction is one that sends possession from a multi-signature address.</p>
<p>For example：</p>
<pre><code>1-of-2: Husband and wife petty cash joint account — the signature of either spouse is sufficient to spend the funds.
2-of-2: Husband and wife savings account — both signatures are required to spend the funds, preventing one spouse from spending the money without the approval of the other.
</code></pre>
<h2 id="use-multi-signature">Use Multi-signature</h2>
<ol>
<li>Every participator gets the public-key of an address by command getpublickey and let others known the public-key. The corresponding private-key will be used to signature multi-signature transaction later.</li>
<li>Every participator creates a multi-signature address by command getnewmultisig with the public-key got in step 1 and same constraints(that means same m, n and public-keys). A multi-signature address is called P2SH（Pay-to-Script-Hash）, it starts with number 3. The multi-signature addresses created by participators should be the same.</li>
<li>One participator creates a multi-signature transaction by command createmultisigtx with the multi-signature addresses created in step 2. The content of the multi-signature transaction can be decoded by command decoderawtx.</li>
<li>m participators signature the multi-signature transaction successively by command signmultisigtx. They signature and send the output to the next participator.</li>
<li>After m participators signatured, broadcast the multi-signature transaction to Metaverse network by command sendrawtx.</li>
</ol>
<h2 id="commands-related-to-multi-signature">Commands related to Multi-signature</h2>
<p>The following commands allow you to use multi-signature in Metaverse:</p>
<p><code>getpublickey</code><br />
<code>getnewmultisig</code><br />
<code>listmultisig</code><br />
<code>deletemultisig</code><br />
<code>createmultisigtx</code><br />
<code>signmultisigtx</code><br />
<code>sendrawtx</code><br />
<code>decoderawtx</code><br />
<code>registerdid</code><br />
<code>didchangeaddress</code><br />
<code>transfercert</code><br />
<code>transfermit</code></p>
<p><b>The following example involves three accounts：Alice，Bob and Cindy. For more detail of the commands, please refer to <a href="https://docs.mvs.org/api_v3/multisig.html">API_v3_multisig</a>.</b></p>
<h2 id="get-and-inform-public-key">Get and inform public-key</h2>
<p>Every participator gets the public-key of an address by command getpublickey and let others known the public-key.</p>
<pre><code>  // Alice gets the public-key of an address of she.
  Command：
  \$ ./mvs-cli getpublickey Alice A123456 "MCJ6vpdCYsVD34XFC22fhqDLfHo7ZtnyM2"

  Output：
  {
  "address" : "MCJ6vpdCYsVD34XFC22fhqDLfHo7ZtnyM2",
  "public-key" : "03d29f0b96f332e50d6014cb91c334214ecb8caf2881a97e7d944bdf4e5fd6a39e"
  }

  // Bob gets the public-key of an address of he.
  Command：
  \$ ./mvs-cli getpublickey Bob B123456 MHaKHUFwAdcszvQarCmn1Rkq2uRoPQjZwm

  Output：
  {
  "address" : "MHaKHUFwAdcszvQarCmn1Rkq2uRoPQjZwm",
  "public-key" : "03f97e079ccae21e1ee65d5ee64e5c27d7d6ce9a867cec75e9736ad5f258329e02"
  }

  // Cindy gets the public-key of an address of she.
  Command：
  \$ ./mvs-cli getpublickey Cindy C123456 MKXa7mtzNaGCEF9vM2sUmmTS93iDpHYd4m

  Output：
  {
  "address" : "MKXa7mtzNaGCEF9vM2sUmmTS93iDpHYd4m",
  "public-key" : "02729cae0c16009f44440f306b76fafb7a7d2503741a619c15b41ff927c1afd6b9"
  }
</code></pre>
<h2 id="create-a-multi-signature-address">Create a multi-signature address</h2>
<p>Every participator creates the same multi-signature address with the command <code>getnewmultisig</code> with the public-key obtained in step 1 and the same constraints(that means same m, n and public-keys).</p>
<p>For example, every participator creates a same multi-signature address with the command <code>getnewmultisig</code> with option option m setted to 2, option n setted to 3, option -s for self public-key and options -k for other’s public-keys. Finally the get the same multi-signature address 39hh1NY9xyTKzawD8zFKXgXa7XBwqck6BR.</p>
<pre><code>  // Alice creates a multi-signature address
  Command：
  $ ./mvs-cli getnewmultisig Alice A123456 -m 2 -n 3 -s "03d29f0b96f332e50d6014cb91c334214ecb8caf2881a97e7d944bdf4e5fd6a39e" -k "03f97e079ccae21e1ee65d5ee64e5c27d7d6ce9a867cec75e9736ad5f258329e02" -k "02729cae0c16009f44440f306b76fafb7a7d2503741a619c15b41ff927c1afd6b9" -d "multisig test"

  Output：
  {
  "address" : "39hh1NY9xyTKzawD8zFKXgXa7XBwqck6BR",
  "description" : "multisig test",
  "index" : 1,
  "m" : 2,
  "multisig-script" : "2 [ 02729cae0c16009f44440f306b76fafb7a7d2503741a619c15b41ff927c1afd6b9 ]  [ 03d29f0b96f332e50d6014cb91c334214ecb8caf2881a97e7d944bdf4e5fd6a39e ]  [ 03f97e079ccae21e1ee65d5ee64e5c27d7d6ce9a867cec75e9736ad5f258329e02 ] 3 checkmultisig",
  "n" : 3,
  "public-keys" :
  [
     "02729cae0c16009f44440f306b76fafb7a7d2503741a619c15b41ff927c1afd6b9",
     "03d29f0b96f332e50d6014cb91c334214ecb8caf2881a97e7d944bdf4e5fd6a39e",
     "03f97e079ccae21e1ee65d5ee64e5c27d7d6ce9a867cec75e9736ad5f258329e02"
  ],
  "self-publickey" : "03d29f0b96f332e50d6014cb91c334214ecb8caf2881a97e7d944bdf4e5fd6a39e"
  }

  // Bob creates a multi-signature address
  Command：
  $ ./mvs-cli getnewmultisig Bob B123456 -m 2 -n 3 -s "03f97e079ccae21e1ee65d5ee64e5c27d7d6ce9a867cec75e9736ad5f258329e02" -k "03d29f0b96f332e50d6014cb91c334214ecb8caf2881a97e7d944bdf4e5fd6a39e" -k "02729cae0c16009f44440f306b76fafb7a7d2503741a619c15b41ff927c1afd6b9" -d "multisig test"

  Output：
  {
  "address" : "39hh1NY9xyTKzawD8zFKXgXa7XBwqck6BR",
  "description" : "multisig test",
  "index" : 1,
  "m" : 2,
  "multisig-script" : "2 [ 02729cae0c16009f44440f306b76fafb7a7d2503741a619c15b41ff927c1afd6b9 ]  [ 03d29f0b96f332e50d6014cb91c334214ecb8caf2881a97e7d944bdf4e5fd6a39e ]  [ 03f97e079ccae21e1ee65d5ee64e5c27d7d6ce9a867cec75e9736ad5f258329e02 ] 3 checkmultisig",
  "n" : 3,
  "public-keys" :
  [
     "02729cae0c16009f44440f306b76fafb7a7d2503741a619c15b41ff927c1afd6b9",
     "03d29f0b96f332e50d6014cb91c334214ecb8caf2881a97e7d944bdf4e5fd6a39e",
     "03f97e079ccae21e1ee65d5ee64e5c27d7d6ce9a867cec75e9736ad5f258329e02"
  ],
  "self-publickey" : "03f97e079ccae21e1ee65d5ee64e5c27d7d6ce9a867cec75e9736ad5f258329e02"
  }

  // Cindy creates a multi-signature address
  Command：
  $ ./mvs-cli getnewmultisig Cindy C123456 -m 2 -n 3 -s "02729cae0c16009f44440f306b76fafb7a7d2503741a619c15b41ff927c1afd6b9" -k "03f97e079ccae21e1ee65d5ee64e5c27d7d6ce9a867cec75e9736ad5f258329e02" -k "03d29f0b96f332e50d6014cb91c334214ecb8caf2881a97e7d944bdf4e5fd6a39e" -d "multisig test"

  Output：
  {
     "address" : "39hh1NY9xyTKzawD8zFKXgXa7XBwqck6BR",
     "description" : "",
     "index" : 1,
     "m" : 2,
     "multisig-script" : "2 [ 02729cae0c16009f44440f306b76fafb7a7d2503741a619c15b41ff927c1afd6b9 ]  [ 03d29f0b96f332e50d6014cb91c334214ecb8caf2881a97e7d944bdf4e5fd6a39e ]  [ 03f97e079ccae21e1ee65d5ee64e5c27d7d6ce9a867cec75e9736ad5f258329e02 ] 3 checkmultisig",
     "n" : 3,
     "public-keys" :
     [
     "02729cae0c16009f44440f306b76fafb7a7d2503741a619c15b41ff927c1afd6b9",
     "03d29f0b96f332e50d6014cb91c334214ecb8caf2881a97e7d944bdf4e5fd6a39e",
     "03f97e079ccae21e1ee65d5ee64e5c27d7d6ce9a867cec75e9736ad5f258329e02"
     ],
     "self-publickey" : "02729cae0c16009f44440f306b76fafb7a7d2503741a619c15b41ff927c1afd6b9"
  }
</code></pre>
<h2 id="send-etp-to-the-multi-signature-address">Send ETP to the multi-signature address</h2>
<p>Participators send ETP to the multi-signature address by command send or sendfrom accord to their contract.</p>
<h2 id="create-a-multi-signature-transaction">Create a multi-signature transaction</h2>
<p>One participator creates a multi-signature transaction to spend ETP on the multi-signature address by command <code>createmultisigtx</code>. The detail of the transaction can be displayed by command <code>decoderawtx</code>.</p>
<p>For example, Cindy creates a multi-signature transaction to send ETP from the multi-signature address to address <code>MHaKHUFwAdcszvQarCmn1Rkq2uRoPQjZwm</code>.</p>
<pre><code>  Command：
  $ ./mvs-cli decoderawtx "02000000016453713104d144387553bcb0fa457f40d2dc5fb916bd9e2256835a4b6de48d4c00000000b500483045022100cbfdda943648344dc03fd92a905072082af93dfd4f166e3d1bb258e3437069790220321ee22c6a2543392909e21cd347d009a6d32173c23700424b45b4592d4075e3014c69522102729cae0c16009f44440f306b76fafb7a7d2503741a619c15b41ff927c1afd6b92103d29f0b96f332e50d6014cb91c334214ecb8caf2881a97e7d944bdf4e5fd6a39e2103f97e079ccae21e1ee65d5ee64e5c27d7d6ce9a867cec75e9736ad5f258329e0253aeffffffff02100d0000000000001976a9146a20e940e8d7be0a49c598e91fa79c8b36e5353588ac0100000000000000d0fb01000000000017a91457e1a19e5ee4c0065f8fd76b0351fa145e44435a87010000000000000000000000"

  Output：
  {
  "transaction" :
  {
     "hash" : "69c044be3c137f0bb34908be257acbb8157877bc57976a25881ed942384a9a61",
     "inputs" :
     [
        {
        "address" : "39hh1NY9xyTKzawD8zFKXgXa7XBwqck6BR",
        "previous_output" :
        {
           "hash" : "4c8de46d4b5a8356229ebd16b95fdcd2407f45fab0bc53753844d10431715364",
           "index" : 0
        },
        "script" : "zero [ 3045022100cbfdda943648344dc03fd92a905072082af93dfd4f166e3d1bb258e3437069790220321ee22c6a2543392909e21cd347d009a6d32173c23700424b45b4592d4075e301 ] [ 522102729cae0c16009f44440f306b76fafb7a7d2503741a619c15b41ff927c1afd6b92103d29f0b96f332e50d6014cb91c334214ecb8caf2881a97e7d944bdf4e5fd6a39e2103f97e079ccae21e1ee65d5ee64e5c27d7d6ce9a867cec75e9736ad5f258329e0253ae ]",
        "sequence" : 4294967295
        }
     ],
     "lock_time" : "0",
     "outputs" :
     [
        {
        "address" : "MHaKHUFwAdcszvQarCmn1Rkq2uRoPQjZwm",
        "attachment" :
        {
           "type" : "etp"
        },
        "index" : 0,
        "locked_height_range" : 0,
        "script" : "dup hash160 [ 6a20e940e8d7be0a49c598e91fa79c8b36e53535 ] equalverify checksig",
        "value" : 3344
        },
        {
        "address" : "39hh1NY9xyTKzawD8zFKXgXa7XBwqck6BR",
        "attachment" :
        {
           "type" : "etp"
        },
        "index" : 1,
        "locked_height_range" : 0,
        "script" : "hash160 [ 57e1a19e5ee4c0065f8fd76b0351fa145e44435a ] equal",
        "value" : 130000
        }
     ],
     "version" : "2"
     }
  }
</code></pre>
<p>The format of field transaction:inputs:script in output is [zero signature-1 signature-2 ... signature-m endorsement]. Cindy‘s signature is already included in field transaction:inputs:script.</p>
<h2 id="other-participators-signature">Other participators signature</h2>
<p>Other participators signature the multi-signature transaction successively by command <code>signmultisigtx</code>. They signature and send the output to the next participator.</p>
<p>Alice gets the raw transaction from Cindy and signatures.</p>
<pre><code>  Command：
  \$ ./mvs-cli signmultisigtx Alice A123456 "02000000016453713104d144387553bcb0fa457f40d2dc5fb916bd9e2256835a4b6de48d4c00000000b500483045022100cbfdda943648344dc03fd92a905072082af93dfd4f166e3d1bb258e3437069790220321ee22c6a2543392909e21cd347d009a6d32173c23700424b45b4592d4075e3014c69522102729cae0c16009f44440f306b76fafb7a7d2503741a619c15b41ff927c1afd6b92103d29f0b96f332e50d6014cb91c334214ecb8caf2881a97e7d944bdf4e5fd6a39e2103f97e079ccae21e1ee65d5ee64e5c27d7d6ce9a867cec75e9736ad5f258329e0253aeffffffff02100d0000000000001976a9146a20e940e8d7be0a49c598e91fa79c8b36e5353588ac0100000000000000d0fb01000000000017a91457e1a19e5ee4c0065f8fd76b0351fa145e44435a87010000000000000000000000"

  Output：
  02000000016453713104d144387553bcb0fa457f40d2dc5fb916bd9e2256835a4b6de48d4c00000000fdfd0000483045022100cbfdda943648344dc03fd92a905072082af93dfd4f166e3d1bb258e3437069790220321ee22c6a2543392909e21cd347d009a6d32173c23700424b45b4592d4075e3014730440220018b6a113d89de18b6c3c7090758cf9e4ca24e7762a2796b872bf6d2d1015b96022046b4518aa9451e617dff9467db7fe0c0d45811d0884faed51e343fec2c4579ff014c69522102729cae0c16009f44440f306b76fafb7a7d2503741a619c15b41ff927c1afd6b92103d29f0b96f332e50d6014cb91c334214ecb8caf2881a97e7d944bdf4e5fd6a39e2103f97e079ccae21e1ee65d5ee64e5c27d7d6ce9a867cec75e9736ad5f258329e0253aeffffffff02100d0000000000001976a9146a20e940e8d7be0a49c598e91fa79c8b36e5353588ac0100000000000000d0fb01000000000017a91457e1a19e5ee4c0065f8fd76b0351fa145e44435a87010000000000000000000000
</code></pre>
<p>Display the detail of the transaction by command <code>decoderawtx</code>.</p>
<pre><code>  Command：
  $ ./mvs-cli decoderawtx "02000000016453713104d144387553bcb0fa457f40d2dc5fb916bd9e2256835a4b6de48d4c00000000fdfd0000483045022100cbfdda943648344dc03fd92a905072082af93dfd4f166e3d1bb258e3437069790220321ee22c6a2543392909e21cd347d009a6d32173c23700424b45b4592d4075e3014730440220018b6a113d89de18b6c3c7090758cf9e4ca24e7762a2796b872bf6d2d1015b96022046b4518aa9451e617dff9467db7fe0c0d45811d0884faed51e343fec2c4579ff014c69522102729cae0c16009f44440f306b76fafb7a7d2503741a619c15b41ff927c1afd6b92103d29f0b96f332e50d6014cb91c334214ecb8caf2881a97e7d944bdf4e5fd6a39e2103f97e079ccae21e1ee65d5ee64e5c27d7d6ce9a867cec75e9736ad5f258329e0253aeffffffff02100d0000000000001976a9146a20e940e8d7be0a49c598e91fa79c8b36e5353588ac0100000000000000d0fb01000000000017a91457e1a19e5ee4c0065f8fd76b0351fa145e44435a87010000000000000000000000"

  Output：
  {
  "transaction" :
  {
     "hash" : "d791b2e0ca6eeb9b5521766b051d54f3659c775dceb39c478ebd0a549bb6d2b4",
     "inputs" :
     [
        {
        "address" : "39hh1NY9xyTKzawD8zFKXgXa7XBwqck6BR",
        "previous_output" :
        {
           "hash" : "4c8de46d4b5a8356229ebd16b95fdcd2407f45fab0bc53753844d10431715364",
           "index" : 0
        },
        "script" : "zero [ 3045022100cbfdda943648344dc03fd92a905072082af93dfd4f166e3d1bb258e3437069790220321ee22c6a2543392909e21cd347d009a6d32173c23700424b45b4592d4075e301 ] [ 30440220018b6a113d89de18b6c3c7090758cf9e4ca24e7762a2796b872bf6d2d1015b96022046b4518aa9451e617dff9467db7fe0c0d45811d0884faed51e343fec2c4579ff01 ] [ 522102729cae0c16009f44440f306b76fafb7a7d2503741a619c15b41ff927c1afd6b92103d29f0b96f332e50d6014cb91c334214ecb8caf2881a97e7d944bdf4e5fd6a39e2103f97e079ccae21e1ee65d5ee64e5c27d7d6ce9a867cec75e9736ad5f258329e0253ae ]",
        "sequence" : 4294967295
        }
     ],
     "lock_time" : "0",
     "outputs" :
     [
        {
        "address" : "MHaKHUFwAdcszvQarCmn1Rkq2uRoPQjZwm",
        "attachment" :
        {
           "type" : "etp"
        },
        "index" : 0,
        "locked_height_range" : 0,
        "script" : "dup hash160 [ 6a20e940e8d7be0a49c598e91fa79c8b36e53535 ] equalverify checksig",
        "value" : 3344
        },
        {
        "address" : "39hh1NY9xyTKzawD8zFKXgXa7XBwqck6BR",
        "attachment" :
        {
           "type" : "etp"
        },
        "index" : 1,
        "locked_height_range" : 0,
        "script" : "hash160 [ 57e1a19e5ee4c0065f8fd76b0351fa145e44435a ] equal",
        "value" : 130000
        }
     ],
     "version" : "2"
     }
  }
</code></pre>
<p>Now, Alice‘s signature is already included in field transaction:inputs:script too.</p>
<h2 id="broadcast-the-multi-signature-transaction">Broadcast the multi-signature transaction</h2>
<p>After Alice and Cindy signatured, Alice broadcasts the multi-signature transaction to Metaverse network.</p>
<pre><code>  $ ./mvs-cli sendrawtx "02000000016453713104d144387553bcb0fa457f40d2dc5fb916bd9e2256835a4b6de48d4c00000000fdfd0000483045022100cbfdda943648344dc03fd92a905072082af93dfd4f166e3d1bb258e3437069790220321ee22c6a2543392909e21cd347d009a6d32173c23700424b45b4592d4075e3014730440220018b6a113d89de18b6c3c7090758cf9e4ca24e7762a2796b872bf6d2d1015b96022046b4518aa9451e617dff9467db7fe0c0d45811d0884faed51e343fec2c4579ff014c69522102729cae0c16009f44440f306b76fafb7a7d2503741a619c15b41ff927c1afd6b92103d29f0b96f332e50d6014cb91c334214ecb8caf2881a97e7d944bdf4e5fd6a39e2103f97e079ccae21e1ee65d5ee64e5c27d7d6ce9a867cec75e9736ad5f258329e0253aeffffffff02100d0000000000001976a9146a20e940e8d7be0a49c598e91fa79c8b36e5353588ac0100000000000000d0fb01000000000017a91457e1a19e5ee4c0065f8fd76b0351fa145e44435a87010000000000000000000000"
</code></pre>
                
                  
                
                
              
              
                


              
            </article>
          </div>
        </div>
      </main>
      
        
<footer class="md-footer">
  
    <div class="md-footer-nav">
      <nav class="md-footer-nav__inner md-grid">
        
          <a href="../mstconditionaloffering/" title="MST Conditional Offering" class="md-flex md-footer-nav__link md-footer-nav__link--prev" rel="prev">
            <div class="md-flex__cell md-flex__cell--shrink">
              <i class="md-icon md-icon--arrow-back md-footer-nav__button"></i>
            </div>
            <div class="md-flex__cell md-flex__cell--stretch md-footer-nav__title">
              <span class="md-flex__ellipsis">
                <span class="md-footer-nav__direction">
                  Previous
                </span>
                MST Conditional Offering
              </span>
            </div>
          </a>
        
        
          <a href="../mstcertificate/" title="Introduction" class="md-flex md-footer-nav__link md-footer-nav__link--next" rel="next">
            <div class="md-flex__cell md-flex__cell--stretch md-footer-nav__title">
              <span class="md-flex__ellipsis">
                <span class="md-footer-nav__direction">
                  Next
                </span>
                Introduction
              </span>
            </div>
            <div class="md-flex__cell md-flex__cell--shrink">
              <i class="md-icon md-icon--arrow-forward md-footer-nav__button"></i>
            </div>
          </a>
        
      </nav>
    </div>
  
  <div class="md-footer-meta md-typeset">
    <div class="md-footer-meta__inner md-grid">
      <div class="md-footer-copyright">
        
        powered by
        <a href="https://www.mkdocs.org" target="_blank" rel="noopener">MkDocs</a>
        and
        <a href="https://squidfunk.github.io/mkdocs-material/" target="_blank" rel="noopener">
          Material for MkDocs</a>
      </div>
      
    </div>
  </div>
</footer>
      
    </div>
    
      <script src="../assets/javascripts/application.c33a9706.js"></script>
      
      <script>app.initialize({version:"1.0.4",url:{base:".."}})</script>
      
    
  </body>
</html>